:100000001BC04BC04AC049C048C047C046C045C0DD
:1000100044C043C042C041C040C03FC0E6C03DC034
:100020003CC03BC03AC039C038C037C036C035C00C
:1000300034C033C03002820211241FBECFEFCDBFC7
:10004000DFE3DEBF8091400080934000811105C056
:1000500098ED21E094BF209341008CBB2FE3A6E0F4
:10006000BFE301C01D92AA32B207E1F71FE3A0E08F
:10007000BFE3ECECF7E002C005900D92A630B107AB
:10008000D9F710E0CBE1D0E003C02197FE014FD2B9
:10009000CA31D107D1F7D8D081C3B2CF9FB7F89476
:1000A00088E08093840A80918E0A81FFFCCF809142
:1000B0008D0AE091A20AF091A30A20911C3F309191
:1000C0001D3F40911E3F50911F3F9FBF80FF07C0C3
:1000D000E730F10520F42F5F3F4F4F4F5F4FBF01D7
:1000E00076956795CF01860F911DE62FE695E695EB
:1000F000762F72957F70E71BFF0B67FD3196E80F37
:10010000F91FA0E3B3E009D26E0F7F1F811D911D7F
:100110000895CF93DF93863078F590E0DC01AA5301
:10012000B8472C912F3F41F1FC01E054F847E081A2
:1001300030E2E39FF0011124FC5F2683308123230A
:1001400089F4EC01C654D84728813097C1F0283093
:10015000B0F47096E20FF11D3FB7F8942081277F2D
:1001600020833FBF8C549847FC018081882321F075
:10017000803141F08038A9F0DF91CF910895F0E00F
:10018000E0E0EACF8C91803851F0853008F0880F9C
:100190009091010A809589238093010AEDCF81E037
:1001A000F7CF10928006E8CF8630E0F490E0FC01B3
:1001B000EA53F84720812F3FA9F0FC01E054F847AB
:1001C000E08130E2E39FF0011124FC5F662359F0E7
:1001D000218386549847DC018C91E80FF11D8089BA
:1001E000877F808B08952283F4CF8F9381E0809363
:1001F0008D0A8FB78F93EF93FF93ECE1FFE39F930B
:1002000068948FEF0DC0E89484819581805D9C4F48
:1002100084839583885E934080F0848395838FEFF9
:100220009081981B919390819F4F919390819F4FC4
:10023000919390819F4F919336F39F91FF91EF910E
:100240008F918FBF8F911895CF93DF93CDB7DEB786
:100250002797CDBFDEBF88ED90E084BF909361000B
:10026000E0E0F6E083E582838DE0858380E28383AE
:1002700011E01083109302021093030A8EEF809313
:10028000260A8093270A8BE08093000AE0E8FAE0D0
:100290008DEF91E086A797A7118280E8828314876B
:1002A00081E18083789461E080910D3F7DDF8091D2
:1002B0000D3F2FDF1093063F76E9E72EE8E0FE2E94
:1002C00010E000E08091073F9091083F0817190760
:1002D00060F580910E3F46E9882321F08E9DC00194
:1002E0001124492FE091143F80910F3F9091103FCE
:1002F0002091113FE213A8C09801220F331F200F55
:10030000311F820F931FE091113FE80FF92FF11D6C
:100310001082E091123FE80FF92FF11D40832091E8
:10032000133F820F911DFC0110828091093F909133
:100330000A3F89839A83B2DE8090153F9090163FE2
:10034000A090173FB090183FAB01BC014819590964
:100350006A097B0980910B3F90910C3FB0E0A0E0CF
:10036000481759076A077B0730F3F894A0910F3FAD
:10037000B091103FFD0131968C918F83A091193F70
:10038000B0911A3F9C9180911B3F982B9E839C912A
:10039000809589238D838D818C83FB825E816D8125
:1003A0004F813B812C8189819A815C9347FD252F68
:1003B0003A95000000C02C93262F41F0441F00C046
:1003C00000006C9301D0F1CF00C0089538E0419156
:1003D00000006C93000000C000C0019731F74F830C
:1003E0003B832C8389839A83789458DE6093153FEE
:1003F0007093163F8093173F9093183F8FB7F894F0
:100400004091203F5091213F6091223F7091233FC6
:100410008FBF2FB7F8948091203F9091213FA091FA
:10042000223FB091233F2FBF841B950BA60BB70B28
:1004300084369105A105B10560F30F5F1F4F0931A7
:10044000110509F03FCF3CCF9801220F331F220F37
:10045000331F820F931FE80FF92FF11D108253CF26
:100460001092063F82E390E080930B3F90930C3F05
:1004700010920E3F1092153F1092163F1092173FA8
:100480001092183F81E08093143F8093113F1092A7
:10049000123F82E08093133F8BE490E08093093F0A
:1004A00090930A3F56D080930F3F9093103F009750
:1004B00001F12BE4FC0111922A95E9F789E190E022
:1004C0008093073F9093083F10920D3F8091063F25
:1004D000882329F061E080E067DE80E01ADE84E0B6
:1004E00094E08093193F90931A3F80E480931B3FE0
:1004F00008951092093F10920A3F1092073F109200
:10050000083FE2CF80910F3F9091103F009709F094
:10051000BCD060E080910D3F47CE0FD0A59F900DDD
:10052000B49F900DA49F800D911D11240895EE0F8E
:10053000FF1F0590F491E02D0994A29FB001B39F95
:10054000C001A39F01D0B29F700D811D1124911D88
:1005500008950F931F93CF93DF938230910510F48A
:1005600082E090E0E091283FF091293F30E020E0E8
:10057000B0E0A0E0309799F42115310509F44AC0A4
:10058000281B390B24303105D8F58A819B816115F0
:10059000710589F1FB0182839383FE0111C04081C3
:1005A00051810281138148175907E0F04817590714
:1005B00099F4109761F012960C93129713961C936E
:1005C0003296CF01DF91CF911F910F910895009343
:1005D000283F1093293FF4CF2115310551F04217E0
:1005E000530738F0A901DB019A01BD01DF01F801D1
:1005F000C1CFEF01F9CF8093283F9093293FCDCF12
:10060000FE01E20FF31F8193919322503109288359
:100610003983D7CF2091263F3091273F232B41F4B8
:100620002091023F3091033F2093263F3093273F94
:100630002091003F3091013F2115310541F42DB744
:100640003EB74091043F5091053F241B350BE0918C
:10065000263FF091273FE217F307A0F42E1B3F0B34
:100660002817390778F0AC014E5F5F4F2417350724
:1006700048F04E0F5F1F4093263F5093273F8193D2
:1006800091939FCFF0E0E0E09CCFCF93DF93009772
:10069000E9F0FC01329712821382A091283FB091B9
:1006A000293FED0130E020E01097A1F42081318155
:1006B000820F931F2091263F3091273F281739073B
:1006C00009F061C0E093263FF093273FDF91CF917F
:1006D0000895EA01CE17DF07E8F54A815B819E01A4
:1006E00041155105B1F7E901EA83FB83499159911D
:1006F000C40FD51FEC17FD0761F48081918102962C
:10070000840F951FE90188839983828193818A836D
:100710009B83F0E0E0E012968D919C9113970097F7
:10072000B9F52D913C911197CD010296820F931F3F
:100730002091263F3091273F2817390739F6309707
:1007400051F51092283F1092293FA093263FB09375
:10075000273FBCCFC283D38340815181840F951F33
:10076000C817D90761F44E5F5F4F88819981480FA0
:10077000591F408351838A819B81828393832115F2
:10078000310509F0B0CFE093283FF093293F9ECF89
:10079000FD01DC01C0CF12821382D7CF10E0CBE184
:1007A000D0E003C0FE01C3DE2196CC31D107D1F7E2
:0407B000F894FFCFEB
:1007B4008010101010000607010203000000000062
:0807C40000004080020408015E
:0607CC0000002A3F80003E
:00000001FF
