:100000001BC04BC04AC049C048C047C046C045C0DD
:1000100044C043C042C041C040C03FC0DEC13DC03B
:100020003CC03BC03AC039C038C037C036C035C00C
:1000300034C033C0DA02E60211241FBECFEFCDBFB9
:10004000DFE3DEBF8091400080934000811105C056
:1000500098ED21E094BF209341008CBB2FE3A6E0F4
:10006000BFE301C01D92A034B207E1F71FE3A0E097
:10007000BFE3E8EBF8E002C005900D92A630B107AF
:10008000D9F710E0CBE1D0E003C02197FE01BED24A
:10009000CA31D107D1F729D2F7C3B2CF8FB7F894BD
:1000A0004091363F5091373F6091383F7091393FD2
:1000B0008FBF2FB7F8948091363F9091373FA09132
:1000C000383FB091393F2FBF841B950BA60BB70B60
:1000D000883E9340A105B10560F308959FB7F89459
:1000E00088E08093840A80918E0A81FFFCCF809102
:1000F0008D0AE091A20AF091A30A2091323F30913B
:10010000333F4091343F5091353F9FBF80FF07C040
:10011000E730F10520F42F5F3F4F4F4F5F4FBF0196
:1001200076956795CF01860F911DE62FE695E695AA
:10013000762F72957F70E71BFF0B67FD3196E80FF6
:10014000F91FA0E3B3E058D26E0F7F1F811D911DF0
:1001500008950F931F93DC0118968C9118978823AC
:1001600061F0489FA0011124452F829F9001112426
:10017000232F809F80011124012F1E968C911E97A2
:100180001996ED91FC911A971B969C911B978913D8
:100190001EC0CB01880F991F680F791F6E0F7F1F3C
:1001A0001B96EC911B97E60FF72FF11D40831C96D1
:1001B000EC911C97E60FF72FF11D20831D968C9173
:1001C000680F711DFB0100831F910F910895660F49
:1001D000771F660F771F6E0F7F1FFB01E80FF11D62
:1001E0001082DECFCF92DF92EF92FF920F931F9398
:1001F000CF93DF93CDB7DEB72797CDBFDEBF8C019E
:10020000FC018381948189839A8368DFF801C78424
:10021000D088E188F288AB01BC014C195D096E09F8
:100220007F0985819681B0E0A0E0481759076A07E9
:100230007B0758F3F894A185B2857D01FFEFEF1A93
:10024000FF0A8C918B83F801A389B4899C918589DD
:10025000982B9C839C91809589238D838D818E839F
:1002600088E08F835C816D814B813F812E81898104
:100270009A81F7015C9347FD252F3A95000000C055
:100280002C93262F41F0441F00C000006C9301D036
:10029000F1CF00C0089538E0419100006C93000058
:1002A00000C000C0019731F74B833F832E838983C1
:1002B0009A83789413DFF8016787708B818B928B18
:1002C0002796CDBFDEBFDF91CF911F910F91FF9099
:1002D000EF90DF90CF900895CF93DF93863078F53D
:1002E00090E0DC01AE54B7472C912F3F41F1FC0167
:1002F000E455F747E08130E2E39FF0011124FC5F11
:1003000026833081232389F4EC01CA55D7472881FD
:100310003097C1F02830B0F47096E20FF11D3FB76E
:10032000F8942081277F20833FBF80569747FC01A8
:100330008081882321F0803141F08038A9F0DF915D
:10034000CF910895F0E0E0E0EACF8C91803851F051
:10035000853008F0880F9091010A80958923809359
:10036000010AEDCF81E0F7CF10928006E8CF86300A
:10037000E0F490E0FC01EE54F74720812F3FA9F014
:10038000FC01E455F747E08130E2E39FF0011124DE
:10039000FC5F662359F021838A559747DC018C91D5
:1003A000E80FF11D8089877F808B08952283F4CF29
:1003B000CF93DF93EC0161E08F81D9DF8F818CDFF8
:1003C00081E08883DF91CF910895FC0143815481BE
:1003D00070E060E08185928550C28F9381E08093C8
:1003E0008D0A8FB78F93EF93FF93E2E3FFE39F9321
:1003F00068948FEF0DC0E89484819581805D9C4F57
:1004000084839583885E934080F0848395838FEF07
:100410009081981B919390819F4F919390819F4FD2
:10042000919390819F4F919336F39F91FF91EF911C
:100430008F918FBF8F911895CF92DF92EF92FF929D
:100440001F93CF93DF93EC016B01142F188282E38B
:1004500090E08D839E8318861F86188A198A1A8ACF
:1004600081E08E878B871C8682E08D877B01EE0C76
:10047000FF1CE60EF71EEB82FC82C701D9D08987EC
:100480009A87009751F1A70170E060E0F6D1C98228
:10049000DA821F838881882329F061E0812F67DF5A
:1004A000812F1ADF812F90E0FC01E455F74720816E
:1004B0002223C1F030E020E02C5F3F4F2B8B3C8BA0
:1004C0008E549747FC0180818D8BDF91CF911F91D6
:1004D000FF90EF90DF90CF9008951B821C821982CD
:1004E0001A82D7CF20E034E0E7CF88ED90E084BFD8
:1004F00090936100E0E0F6E083E582838DE0858300
:1005000080E2838381E08083809302028093030AE8
:100510009EEF9093260A9093270A9BE09093000AFF
:10052000E0E8FAE02DEF31E026A737A7118290E846
:100530009283848781E1808378948CE19FE338DF24
:1005400086E09FE335DF8CE19FE33FDF86E09FE3BA
:100550003CDFA4DD8CE19FE32BDF86E09FE328DF17
:1005600080911D3F90911E3F892B41F005E02BE7C4
:1005700046E970E060E08CE19FE3EBDDD0E0C0E0B5
:100580008091073F9091083FC817D90738F40AEFC8
:1005900020E040E0BE0186E09FE3DBDD2196C23132
:1005A000D10571F78CE19FE31DDE86E09FE31ADE43
:1005B00075DDC9CF40E061E070E08CE19FE33CDF96
:1005C00041E062E170E086E09FE336CF80910F3F2B
:1005D0009091103F009709F0C7D060E080910D3FE7
:1005E000C6DE8091253F9091263F009709F0BCD050
:1005F00060E08091233FBBCE0FD0A59F900DB49FAC
:10060000900DA49F800D911D11240895EE0FFF1FE2
:100610000590F491E02D0994A29FB001B39FC00111
:10062000A39F01D0B29F700D811D1124911D0895CB
:100630000F931F93CF93DF938230910510F482E0E4
:1006400090E0E0913E3FF0913F3F30E020E0B0E0AD
:10065000A0E0309799F42115310509F44AC0281B10
:10066000390B24303105D8F58A819B8161157105DC
:1006700089F1FB0182839383FE0111C04081518186
:100680000281138148175907E0F04817590799F478
:10069000109761F012960C93129713961C93329652
:1006A000CF01DF91CF911F910F91089500933E3FAD
:1006B00010933F3FF4CF2115310551F042175307F6
:1006C00038F0A901DB019A01BD01DF01F801C1CFBA
:1006D000EF01F9CF80933E3F90933F3FCDCFFE0196
:1006E000E20FF31F819391932250310928833983BC
:1006F000D7CF20913C3F30913D3F232B41F42091B7
:10070000023F3091033F20933C3F30933D3F209187
:10071000003F3091013F2115310541F42DB73EB71F
:100720004091043F5091053F241B350BE0913C3F25
:10073000F0913D3FE217F307A0F42E1B3F0B281763
:10074000390778F0AC014E5F5F4F2417350748F04A
:100750004E0F5F1F40933C3F50933D3F81939193D9
:100760009FCFF0E0E0E09CCFCF93DF930097E9F0DC
:10077000FC01329712821382A0913E3FB0913F3F1D
:10078000ED0130E020E01097A1F420813181820F4B
:10079000931F20913C3F30913D3F2817390709F0C6
:1007A00061C0E0933C3FF0933D3FDF91CF910895CE
:1007B000EA01CE17DF07E8F54A815B819E0141150A
:1007C0005105B1F7E901EA83FB8349915991C40FBF
:1007D000D51FEC17FD0761F4808191810296840F8B
:1007E000951FE90188839983828193818A839B8302
:1007F000F0E0E0E012968D919C9113970097B9F587
:100800002D913C911197CD010296820F931F20915B
:100810003C3F30913D3F2817390739F6309751F565
:1008200010923E3F10923F3FA0933C3FB0933D3F1C
:10083000BCCFC283D38340815181840F951FC817D9
:10084000D90761F44E5F5F4F88819981480F591F26
:10085000408351838A819B81828393832115310553
:1008600009F0B0CFE0933E3FF0933F3F9ECFFD01B4
:10087000DC01C0CF12821382D7CFDC0101C06D939F
:1008800041505040E0F7089510E0CBE1D0E003C0C4
:10089000FE01BCDE2196CC31D107D1F7F894FFCF11
:1008A0008010101010000607010203000000000075
:0808B000000040800204080171
:0608B8000000403F80003B
:00000001FF
