:100000001AC04AC049C048C047C046C045C044C0E5
:1000100043C042C041C040C03FC03EC03CC13CC0E4
:100020003BC03AC039C038C037C036C035C034C014
:1000300033C032C0150211241FBECFEFCDBFDFE3A6
:10004000DEBF8091400080934000811105C098ED93
:1000500021E094BF209341008CBB1FE3A0E0BFE3ED
:10006000E0EBF6E002C005900D92A430B107D9F79D
:100070002FE3A4E0BFE301C01D92A93EB207E1F760
:1000800010E0CBE1D0E003C02197FE0109D3CA31D3
:10009000D107D1F72FD10AC3B3CF9FB7F89488E027
:1000A0008093840A80918E0A81FFFCCF80918D0A13
:1000B000E091A20AF091A30A2091DF3F3091E03F46
:1000C0004091E13F5091E23F9FBF80FF07C0E73082
:1000D000F10520F42F5F3F4F4F4F5F4FBF017695E3
:1000E0006795CF01860F911DE62FE695E695762F51
:1000F00072957F70E71BFF0B67FD3196E80FF91FC4
:10010000A0E3B3E08FD26E0F7F1F811D911D089574
:100110000F931F93DC0117968C911797882361F03A
:10012000489FA0011124452F829F90011124232F65
:10013000809F80011124012F1D968C911D97189688
:10014000ED91FC9119971A969C911A9789131EC0EC
:10015000CB01880F991F680F791F6E0F7F1F1A96AA
:10016000EC911A97E60FF72FF11D40831B96EC9147
:100170001B97E60FF72FF11D20831C968C91680FBB
:10018000711DFB0100831F910F910895660F771F6A
:10019000660F771F6E0F7F1FFB01E80FF11D1082A6
:1001A000DECFCF92DF92EF92FF920F931F93CF9308
:1001B000DF93CDB7DEB72797CDBFDEBF8C01FC0143
:1001C0008281938189839A8368DFF801C684D7840A
:1001D000E088F188AB01BC014C195D096E097F090B
:1001E00084819581B0E0A0E0481759076A077B0732
:1001F00058F3F894A085B1857D01FFEFEF1AFF0A4F
:100200008C918B83F801A289B3899C918489982B66
:100210009C839C91809589238D838D818E8388E03A
:100220008F835C816D814B813F812E8189819A8191
:10023000F7015C9347FD252F3A95000000C02C93F1
:10024000262F41F0441F00C000006C9301D0F1CF75
:1002500000C0089538E0419100006C93000000C098
:1002600000C0019731F74B833F832E8389839A83A4
:10027000789413DFF80166877787808B918B2796B8
:10028000CDBFDEBFDF91CF911F910F91FF90EF9017
:10029000DF90CF9008958F9381E080938D0A8FB780
:1002A0008F93EF93FF93EFEDFFE39F9368948FEFAE
:1002B0000DC0E89484819581805D9C4F84839583F3
:1002C000885E934080F0848395838FEF9081981BA4
:1002D000919390819F4F919390819F4F91939081A3
:1002E0009F4F919336F39F91FF91EF918F918FBF25
:1002F0008F91189588ED90E084BF90936100E0E0C5
:10030000F6E083E582838DE0858380E2838381E06C
:100310008083809302028093030A9EEF9093260AC3
:100320009093270A9BE09093000AE0E8FAE02DEF13
:1003300031E026A737A7118290E89283848781E174
:10034000808378949093010480911704877F809331
:10035000170480E48093010480911604877F8093C2
:100360001604D0E0C0E08091B53F9091B63FC81729
:10037000D90738F400E022E342E3BE0185EB9FE3B6
:10038000C7DE2196CF30D10571F785EB9FE309DFFA
:100390008CE2C82ED12CE12CF12CD0E0C0E0809171
:1003A000CA3F9091CB3FC817D90738F402E322E344
:1003B00042E3BE018AEC9FE3ABDE2196CC32D1054D
:1003C00071F7BFD0A701960111D12091CA3F30919A
:1003D000CB3F6217730730F40FEF2FEF4FEF8AEC2C
:1003E0009FE396DE8AEC9FE3DCDE8FB7F8944091C2
:1003F000E33F5091E43F6091E53F7091E63F8FBF4E
:100400002FB7F8948091E33F9091E43FA091E53FAE
:10041000B091E63F2FBF841B950BA60BB70B84361C
:100420009105A105B10560F3B8CFEAECFFE342E323
:1004300050E044835583178281E39FE3808791874F
:1004400016861786108A118A81E08587828713862F
:1004500092E0948724E830E0228333832CE230E07A
:1004600020833183868324E034E0228B338B60E861
:10047000648BE5EBFFE344835583178244E05FE33D
:100480004087518716861786108A118A858782874A
:10049000138694878DE290E0828393838FE090E0CF
:1004A000808391831682228B338B80E4848B089522
:1004B0008F929F92AF92BF92CF92DF92EF92FF9274
:1004C000CF93DF93EC01688179818A819B816115EB
:1004D00071058105910521F464E279ED8BE597E0E2
:1004E0002DE133EF41E050E081D049015A019B01F9
:1004F000AC01A7EAB1E496D06B017C01ACEEB4EF9D
:10050000A50194019BD0C60ED71EE81EF91EF7FE6A
:1005100006C081E0C81AD108E10880E8F80AC8825C
:10052000D982EA82FB82C701B6019F77DF91CF9122
:10053000FF90EF90DF90CF90BF90AF909F908F9003
:1005400008958F929F92AF92BF92CF92DF92EF92D7
:10055000FF926091003F7091013F8091023F909126
:10056000033F611571058105910521F464E279ED80
:100570008BE597E02DE133EF41E050E037D04901C2
:100580005A019B01AC01A7EAB1E44CD06B017C019C
:10059000ACEEB4EFA501940151D0C60ED71EE81EF3
:1005A000F91EF7FE06C081E0C81AD108E10880E80C
:1005B000F80AC092003FD092013FE092023FF092D1
:1005C000033FC701B6019F77FF90EF90DF90CF9078
:1005D000BF90AF909F908F9008956093003F70936D
:1005E000013F8093023F9093033F0895052E97FBB0
:1005F00016F400940FD057FD05D024D007FC02D08C
:1006000046F408C050954095309521953F4F4F4F87
:100610005F4F089590958095709561957F4F8F4FAE
:100620009F4F089531D0A59F900DB49F900DA49F2A
:10063000800D911D11240895B7FFF4CFF3DF821BC5
:10064000930B0895A1E21A2EAA1BBB1BFD010DC03E
:10065000AA1FBB1FEE1FFF1FA217B307E407F50772
:1006600020F0A21BB30BE40BF50B661F771F881F4E
:10067000991F1A9469F760957095809590959B01E4
:10068000AC01BD01CF010895A29FB001B39FC0018D
:10069000A39F01D0B29F700D811D1124911D08955B
:1006A000EE0FFF1F0590F491E02D0994F894FFCF11
:0406B0000100000045
:00000001FF
